{
  "address": "0xC45b277F916294E1835CFa3Ffd0244a4aDe2108d",
  "abi": [
    {
      "inputs": [
        {
          "internalType": "address",
          "name": "diceRollerAddress",
          "type": "address"
        },
        {
          "internalType": "address",
          "name": "playerAddress",
          "type": "address"
        },
        {
          "internalType": "address",
          "name": "initialOwner",
          "type": "address"
        }
      ],
      "stateMutability": "nonpayable",
      "type": "constructor"
    },
    {
      "inputs": [],
      "name": "AlreadyExists",
      "type": "error"
    },
    {
      "inputs": [],
      "name": "NoTwoRollsPerBlock",
      "type": "error"
    },
    {
      "inputs": [],
      "name": "Unauthorized",
      "type": "error"
    },
    {
      "anonymous": false,
      "inputs": [
        {
          "indexed": true,
          "internalType": "uint256",
          "name": "index",
          "type": "uint256"
        },
        {
          "indexed": true,
          "internalType": "uint256",
          "name": "blockNumber",
          "type": "uint256"
        },
        {
          "indexed": false,
          "internalType": "bytes32",
          "name": "random",
          "type": "bytes32"
        }
      ],
      "name": "DiceRolled",
      "type": "event"
    },
    {
      "anonymous": false,
      "inputs": [
        {
          "indexed": true,
          "internalType": "bytes32",
          "name": "role",
          "type": "bytes32"
        },
        {
          "indexed": true,
          "internalType": "bytes32",
          "name": "previousAdminRole",
          "type": "bytes32"
        },
        {
          "indexed": true,
          "internalType": "bytes32",
          "name": "newAdminRole",
          "type": "bytes32"
        }
      ],
      "name": "RoleAdminChanged",
      "type": "event"
    },
    {
      "anonymous": false,
      "inputs": [
        {
          "indexed": true,
          "internalType": "bytes32",
          "name": "role",
          "type": "bytes32"
        },
        {
          "indexed": true,
          "internalType": "address",
          "name": "account",
          "type": "address"
        },
        {
          "indexed": true,
          "internalType": "address",
          "name": "sender",
          "type": "address"
        }
      ],
      "name": "RoleGranted",
      "type": "event"
    },
    {
      "anonymous": false,
      "inputs": [
        {
          "indexed": true,
          "internalType": "bytes32",
          "name": "role",
          "type": "bytes32"
        },
        {
          "indexed": true,
          "internalType": "address",
          "name": "account",
          "type": "address"
        },
        {
          "indexed": true,
          "internalType": "address",
          "name": "sender",
          "type": "address"
        }
      ],
      "name": "RoleRevoked",
      "type": "event"
    },
    {
      "anonymous": false,
      "inputs": [
        {
          "indexed": true,
          "internalType": "bytes32",
          "name": "id",
          "type": "bytes32"
        }
      ],
      "name": "TableCreated",
      "type": "event"
    },
    {
      "inputs": [],
      "name": "ADMIN_ROLE",
      "outputs": [
        {
          "internalType": "bytes32",
          "name": "",
          "type": "bytes32"
        }
      ],
      "stateMutability": "view",
      "type": "function"
    },
    {
      "inputs": [],
      "name": "DEFAULT_ADMIN_ROLE",
      "outputs": [
        {
          "internalType": "bytes32",
          "name": "",
          "type": "bytes32"
        }
      ],
      "stateMutability": "view",
      "type": "function"
    },
    {
      "inputs": [
        {
          "internalType": "uint256",
          "name": "",
          "type": "uint256"
        }
      ],
      "name": "blockOfRoll",
      "outputs": [
        {
          "internalType": "uint256",
          "name": "",
          "type": "uint256"
        }
      ],
      "stateMutability": "view",
      "type": "function"
    },
    {
      "inputs": [
        {
          "internalType": "bytes32",
          "name": "id",
          "type": "bytes32"
        },
        {
          "internalType": "address[]",
          "name": "playerAddresses",
          "type": "address[]"
        },
        {
          "internalType": "bytes32[]",
          "name": "statSeeds",
          "type": "bytes32[]"
        },
        {
          "internalType": "uint256",
          "name": "length",
          "type": "uint256"
        },
        {
          "internalType": "address",
          "name": "owner",
          "type": "address"
        }
      ],
      "name": "createTable",
      "outputs": [],
      "stateMutability": "nonpayable",
      "type": "function"
    },
    {
      "inputs": [
        {
          "internalType": "bytes32",
          "name": "",
          "type": "bytes32"
        },
        {
          "internalType": "uint256",
          "name": "",
          "type": "uint256"
        },
        {
          "internalType": "uint256",
          "name": "",
          "type": "uint256"
        }
      ],
      "name": "destinations",
      "outputs": [
        {
          "internalType": "address",
          "name": "player",
          "type": "address"
        },
        {
          "internalType": "int64",
          "name": "x",
          "type": "int64"
        },
        {
          "internalType": "int64",
          "name": "y",
          "type": "int64"
        }
      ],
      "stateMutability": "view",
      "type": "function"
    },
    {
      "inputs": [
        {
          "internalType": "bytes32",
          "name": "id",
          "type": "bytes32"
        },
        {
          "internalType": "uint256",
          "name": "roll",
          "type": "uint256"
        }
      ],
      "name": "destinationsForRoll",
      "outputs": [
        {
          "components": [
            {
              "internalType": "address",
              "name": "player",
              "type": "address"
            },
            {
              "internalType": "int64",
              "name": "x",
              "type": "int64"
            },
            {
              "internalType": "int64",
              "name": "y",
              "type": "int64"
            }
          ],
          "internalType": "struct DelphsTable.Destination[]",
          "name": "",
          "type": "tuple[]"
        }
      ],
      "stateMutability": "view",
      "type": "function"
    },
    {
      "inputs": [
        {
          "internalType": "bytes32",
          "name": "role",
          "type": "bytes32"
        }
      ],
      "name": "getRoleAdmin",
      "outputs": [
        {
          "internalType": "bytes32",
          "name": "",
          "type": "bytes32"
        }
      ],
      "stateMutability": "view",
      "type": "function"
    },
    {
      "inputs": [
        {
          "internalType": "bytes32",
          "name": "role",
          "type": "bytes32"
        },
        {
          "internalType": "address",
          "name": "account",
          "type": "address"
        }
      ],
      "name": "grantRole",
      "outputs": [],
      "stateMutability": "nonpayable",
      "type": "function"
    },
    {
      "inputs": [
        {
          "internalType": "bytes32",
          "name": "role",
          "type": "bytes32"
        },
        {
          "internalType": "address",
          "name": "account",
          "type": "address"
        }
      ],
      "name": "hasRole",
      "outputs": [
        {
          "internalType": "bool",
          "name": "",
          "type": "bool"
        }
      ],
      "stateMutability": "view",
      "type": "function"
    },
    {
      "inputs": [],
      "name": "latestRoll",
      "outputs": [
        {
          "internalType": "uint256",
          "name": "",
          "type": "uint256"
        }
      ],
      "stateMutability": "view",
      "type": "function"
    },
    {
      "inputs": [],
      "name": "player",
      "outputs": [
        {
          "internalType": "contract IPlayer",
          "name": "",
          "type": "address"
        }
      ],
      "stateMutability": "view",
      "type": "function"
    },
    {
      "inputs": [
        {
          "internalType": "bytes32",
          "name": "id",
          "type": "bytes32"
        }
      ],
      "name": "players",
      "outputs": [
        {
          "internalType": "address[]",
          "name": "",
          "type": "address[]"
        }
      ],
      "stateMutability": "view",
      "type": "function"
    },
    {
      "inputs": [
        {
          "internalType": "bytes32",
          "name": "role",
          "type": "bytes32"
        },
        {
          "internalType": "address",
          "name": "account",
          "type": "address"
        }
      ],
      "name": "renounceRole",
      "outputs": [],
      "stateMutability": "nonpayable",
      "type": "function"
    },
    {
      "inputs": [
        {
          "internalType": "bytes32",
          "name": "role",
          "type": "bytes32"
        },
        {
          "internalType": "address",
          "name": "account",
          "type": "address"
        }
      ],
      "name": "revokeRole",
      "outputs": [],
      "stateMutability": "nonpayable",
      "type": "function"
    },
    {
      "inputs": [],
      "name": "rollTheDice",
      "outputs": [
        {
          "internalType": "uint256",
          "name": "",
          "type": "uint256"
        }
      ],
      "stateMutability": "nonpayable",
      "type": "function"
    },
    {
      "inputs": [],
      "name": "roller",
      "outputs": [
        {
          "internalType": "contract IDiceRoller",
          "name": "",
          "type": "address"
        }
      ],
      "stateMutability": "view",
      "type": "function"
    },
    {
      "inputs": [
        {
          "internalType": "uint256",
          "name": "",
          "type": "uint256"
        }
      ],
      "name": "rolls",
      "outputs": [
        {
          "internalType": "bytes32",
          "name": "",
          "type": "bytes32"
        }
      ],
      "stateMutability": "view",
      "type": "function"
    },
    {
      "inputs": [
        {
          "internalType": "bytes32",
          "name": "id",
          "type": "bytes32"
        }
      ],
      "name": "seeds",
      "outputs": [
        {
          "internalType": "bytes32[]",
          "name": "",
          "type": "bytes32[]"
        }
      ],
      "stateMutability": "view",
      "type": "function"
    },
    {
      "inputs": [
        {
          "internalType": "bytes32",
          "name": "id",
          "type": "bytes32"
        },
        {
          "internalType": "int64",
          "name": "x",
          "type": "int64"
        },
        {
          "internalType": "int64",
          "name": "y",
          "type": "int64"
        }
      ],
      "name": "setDestination",
      "outputs": [
        {
          "internalType": "bool",
          "name": "",
          "type": "bool"
        }
      ],
      "stateMutability": "nonpayable",
      "type": "function"
    },
    {
      "inputs": [
        {
          "internalType": "bytes32",
          "name": "id",
          "type": "bytes32"
        }
      ],
      "name": "start",
      "outputs": [
        {
          "internalType": "uint256",
          "name": "",
          "type": "uint256"
        }
      ],
      "stateMutability": "nonpayable",
      "type": "function"
    },
    {
      "inputs": [
        {
          "internalType": "bytes32",
          "name": "id",
          "type": "bytes32"
        },
        {
          "internalType": "address",
          "name": "playerAddress",
          "type": "address"
        }
      ],
      "name": "statsForPlayer",
      "outputs": [
        {
          "components": [
            {
              "internalType": "uint256",
              "name": "attack",
              "type": "uint256"
            },
            {
              "internalType": "uint256",
              "name": "defense",
              "type": "uint256"
            },
            {
              "internalType": "uint256",
              "name": "health",
              "type": "uint256"
            }
          ],
          "internalType": "struct DelphsTable.Stats",
          "name": "",
          "type": "tuple"
        }
      ],
      "stateMutability": "view",
      "type": "function"
    },
    {
      "inputs": [
        {
          "internalType": "bytes4",
          "name": "interfaceId",
          "type": "bytes4"
        }
      ],
      "name": "supportsInterface",
      "outputs": [
        {
          "internalType": "bool",
          "name": "",
          "type": "bool"
        }
      ],
      "stateMutability": "view",
      "type": "function"
    },
    {
      "inputs": [
        {
          "internalType": "bytes32",
          "name": "",
          "type": "bytes32"
        }
      ],
      "name": "tables",
      "outputs": [
        {
          "internalType": "bytes32",
          "name": "id",
          "type": "bytes32"
        },
        {
          "internalType": "address",
          "name": "owner",
          "type": "address"
        },
        {
          "internalType": "uint256",
          "name": "startedAt",
          "type": "uint256"
        },
        {
          "internalType": "uint256",
          "name": "gameLength",
          "type": "uint256"
        }
      ],
      "stateMutability": "view",
      "type": "function"
    }
  ],
  "transactionHash": "0x07a737144d186ec4bc94b08d5b81cd12cd0ea6f55a7610d60b355ebb7ca56f80",
  "args": [
    "0xd4dA38e40f04462DAa0e243901038aF081cC839c",
    "0x987b58d118adf1AD1885141439EBB06844270dC8",
    "0x905173B6C0A51925d3C9B619466c623c754Fb7BB"
  ],
  "numDeployments": 2,
  "solcInputHash": "e74064c30a81560d82c3fbf64645019a",
  "bytecode": "0x60c06040523480156200001157600080fd5b506040516200191c3803806200191c833981016040819052620000349162000149565b6001600160a01b03808416608052821660a052620000737fa49807205ce4d355092ef5a8a18f56e8913cf4a201fbe287825b095693c21775826200007c565b50505062000193565b6200008882826200008c565b5050565b6000828152602081815260408083206001600160a01b038516845290915290205460ff1662000088576000828152602081815260408083206001600160a01b03851684529091529020805460ff19166001179055620000e83390565b6001600160a01b0316816001600160a01b0316837f2f8788117e7eff1d82e926ec794901d17c78024a50270940304540a733656f0d60405160405180910390a45050565b80516001600160a01b03811681146200014457600080fd5b919050565b6000806000606084860312156200015f57600080fd5b6200016a846200012c565b92506200017a602085016200012c565b91506200018a604085016200012c565b90509250925092565b60805160a051611755620001c76000396000818161027d0152610d4a0152600081816101f6015261079301526117556000f3fe608060405234801561001057600080fd5b506004361061014d5760003560e01c80637213b814116100c3578063a217fddf1161007c578063a217fddf14610392578063ae383a4d1461039a578063d3098b9a146103a3578063d547741f1461040b578063e0e543d01461041e578063f15c95491461043e57600080fd5b80637213b814146102bf57806375b238fc146102fb5780637d789dee14610322578063907efe001461032a57806391d148541461035f5780639424732e1461037257600080fd5b80632f09177d116101155780632f09177d146101f15780632f2ff15d14610230578063361508521461024557806336568abe1461026557806348db5f89146102785780635d69f16c1461029f57600080fd5b8063015a18ed1461015257806301ffc9a714610178578063138701321461019b578063248a9ca3146101ae5780632d1dc122146101d1575b600080fd5b61016561016036600461122a565b610451565b6040519081526020015b60405180910390f35b61018b610186366004611243565b6104c1565b604051901515815260200161016f565b61018b6101a936600461127f565b6104f8565b6101656101bc36600461122a565b60009081526020819052604090206001015490565b6101656101df36600461122a565b60036020526000908152604090205481565b6102187f000000000000000000000000000000000000000000000000000000000000000081565b6040516001600160a01b03909116815260200161016f565b61024361023e3660046112d0565b6105ea565b005b61025861025336600461122a565b610614565b60405161016f9190611300565b6102436102733660046112d0565b610679565b6102187f000000000000000000000000000000000000000000000000000000000000000081565b6101656102ad36600461122a565b60026020526000908152604090205481565b6102d26102cd366004611344565b6106fc565b604080516001600160a01b039094168452600792830b6020850152910b9082015260600161016f565b6101657fa49807205ce4d355092ef5a8a18f56e8913cf4a201fbe287825b095693c2177581565b61016561075d565b61033d6103383660046112d0565b6108be565b604080518251815260208084015190820152918101519082015260600161016f565b61018b61036d3660046112d0565b6109fc565b61038561038036600461122a565b610a25565b60405161016f9190611370565b610165600081565b61016560015481565b6103e36103b136600461122a565b6005602081905260009182526040909120805460038201546004830154929093015490926001600160a01b0316919084565b604080519485526001600160a01b03909316602085015291830152606082015260800161016f565b6102436104193660046112d0565b610a93565b61043161042c3660046113b1565b610ab8565b60405161016f91906113d3565b61024361044c366004611489565b610b58565b600081815260056020526040812060038101546001600160a01b0316610475610d28565b6001600160a01b03161461049b576040516282b42960e81b815260040160405180910390fd5b600180546104a891611536565b6004820155600180546104ba91611536565b9392505050565b60006001600160e01b03198216637965db0b60e01b14806104f257506301ffc9a760e01b6001600160e01b03198316145b92915050565b600080610503610d28565b60008681526005602052604090209091506105216001820183610dd1565b61053d576040516282b42960e81b815260040160405180910390fd5b50600094855260046020908152604080872060018054895290835281882082516060810184526001600160a01b039586168152600798890b8186019081529790980b92880192835280548083018255908952929097209551600290920290950180549451919092166001600160e01b031990941693909317600160a01b67ffffffffffffffff948516021781559251928401805467ffffffffffffffff1916939092169290921790555090565b60008281526020819052604090206001015461060581610e3e565b61060f8383610e4b565b505050565b60008181526005602090815260409182902060020180548351818402810184019094528084526060939283018282801561066d57602002820191906000526020600020905b815481526020019060010190808311610659575b50505050509050919050565b6001600160a01b03811633146106ee5760405162461bcd60e51b815260206004820152602f60248201527f416363657373436f6e74726f6c3a2063616e206f6e6c792072656e6f756e636560448201526e103937b632b9903337b91039b2b63360891b60648201526084015b60405180910390fd5b6106f88282610ecf565b5050565b6004602052826000526040600020602052816000526040600020818154811061072457600080fd5b6000918252602090912060029091020180546001909101546001600160a01b0382169450600160a01b909104600790810b93500b905083565b60015460009081526003602052604081205443900361078f576040516374f70e7960e11b815260040160405180910390fd5b60007f00000000000000000000000000000000000000000000000000000000000000006001600160a01b031663aacc5a176040518163ffffffff1660e01b8152600401602060405180830381865afa1580156107ef573d6000803e3d6000fd5b505050506040513d601f19601f82011682018060405250810190610813919061154e565b9050806002600060015460016108299190611536565b8152602001908152602001600020819055504360036000600154600161084f9190611536565b8152602001908152602001600020819055506001600081548092919061087490611567565b9190505550436001547f61a648c0140ef625babe35b3bc5ba2a28852bd10a17c53f6d9f3831b21096cd7836040516108ae91815260200190565b60405180910390a3505060015490565b6108e260405180606001604052806000815260200160008152602001600081525090565b600083815260056020908152604080832060048101548452600290925291829020548251606081019093529091806109558361093e886080850160609190911b6001600160601b0319168152606160f81b601482015260150190565b6040516020818303038152906040526103e8610f34565b81526020016109a3838760405160200161098c919060609190911b6001600160601b0319168152601960fa1b601482015260150190565b604051602081830303815290604052610384610f34565b81526020016109f183876040516020016109da919060609190911b6001600160601b0319168152600d60fb1b601482015260150190565b6040516020818303038152906040526107d0610f34565b905295945050505050565b6000918252602082815260408084206001600160a01b0393909316845291905290205460ff1690565b60008181526005602090815260409182902060010180548351818402810184019094528084526060939283018282801561066d57602002820191906000526020600020905b81546001600160a01b03168152600190910190602001808311610a6a5750505050509050919050565b600082815260208190526040902060010154610aae81610e3e565b61060f8383610ecf565b60008281526004602090815260408083208484528252808320805482518185028101850190935280835260609492939192909184015b82821015610b4c576000848152602090819020604080516060810182526002860290920180546001600160a01b0381168452600160a01b9004600790810b84860152600191820154900b918301919091529083529092019101610aee565b50505050905092915050565b610b847fa49807205ce4d355092ef5a8a18f56e8913cf4a201fbe287825b095693c2177561036d610d28565b610ba0576040516282b42960e81b815260040160405180910390fd5b6000878152600560205260409020600181015415610bd15760405163119b4fd360e11b815260040160405180910390fd5b6040518060c00160405280898152602001888880806020026020016040519081016040528093929190818152602001838360200280828437600092019190915250505090825250604080516020888102828101820190935288825292830192909189918991829185019084908082843760009201829052509385525050506001600160a01b038516602080840191909152604080840183905260609093018790528b825260058152919020825181558282015180519192610c9a92600185019290910190611175565b5060408201518051610cb69160028401916020909101906111da565b5060608201516003820180546001600160a01b0319166001600160a01b039092169190911790556080820151600482015560a09091015160059091015560405188907fff39e0eaf58742100b3d96f355f818806f2c4c75c3fb9c8ff1101305924884fa90600090a25050505050505050565b6040516336ec7a7760e01b815233600482015260009081906001600160a01b037f000000000000000000000000000000000000000000000000000000000000000016906336ec7a7790602401602060405180830381865afa158015610d91573d6000803e3d6000fd5b505050506040513d601f19601f82011682018060405250810190610db59190611580565b90506001600160a01b038116610dcc573391505090565b919050565b8154600090815b81811015610e3357836001600160a01b0316858281548110610dfc57610dfc61159d565b6000918252602090912001546001600160a01b031603610e21576001925050506104f2565b80610e2b81611567565b915050610dd8565b506000949350505050565b610e488133610f75565b50565b610e5582826109fc565b6106f8576000828152602081815260408083206001600160a01b03851684529091529020805460ff19166001179055610e8b3390565b6001600160a01b0316816001600160a01b0316837f2f8788117e7eff1d82e926ec794901d17c78024a50270940304540a733656f0d60405160405180910390a45050565b610ed982826109fc565b156106f8576000828152602081815260408083206001600160a01b0385168085529252808320805460ff1916905551339285917ff6391f5c32d9c69d2a47ea670b442974b53935d1edc7fd64eb21e047a839171b9190a45050565b6000818484604051602001610f4a9291906115e3565b6040516020818303038152906040528051906020012060001c610f6d9190611609565b949350505050565b610f7f82826109fc565b6106f857610f97816001600160a01b03166014610fd9565b610fa2836020610fd9565b604051602001610fb392919061162b565b60408051601f198184030181529082905262461bcd60e51b82526106e5916004016116a0565b60606000610fe88360026116d3565b610ff3906002611536565b67ffffffffffffffff81111561100b5761100b6116f2565b6040519080825280601f01601f191660200182016040528015611035576020820181803683370190505b509050600360fc1b816000815181106110505761105061159d565b60200101906001600160f81b031916908160001a905350600f60fb1b8160018151811061107f5761107f61159d565b60200101906001600160f81b031916908160001a90535060006110a38460026116d3565b6110ae906001611536565b90505b6001811115611126576f181899199a1a9b1b9c1cb0b131b232b360811b85600f16601081106110e2576110e261159d565b1a60f81b8282815181106110f8576110f861159d565b60200101906001600160f81b031916908160001a90535060049490941c9361111f81611708565b90506110b1565b5083156104ba5760405162461bcd60e51b815260206004820181905260248201527f537472696e67733a20686578206c656e67746820696e73756666696369656e7460448201526064016106e5565b8280548282559060005260206000209081019282156111ca579160200282015b828111156111ca57825182546001600160a01b0319166001600160a01b03909116178255602090920191600190910190611195565b506111d6929150611215565b5090565b8280548282559060005260206000209081019282156111ca579160200282015b828111156111ca5782518255916020019190600101906111fa565b5b808211156111d65760008155600101611216565b60006020828403121561123c57600080fd5b5035919050565b60006020828403121561125557600080fd5b81356001600160e01b0319811681146104ba57600080fd5b8035600781900b8114610dcc57600080fd5b60008060006060848603121561129457600080fd5b833592506112a46020850161126d565b91506112b26040850161126d565b90509250925092565b6001600160a01b0381168114610e4857600080fd5b600080604083850312156112e357600080fd5b8235915060208301356112f5816112bb565b809150509250929050565b6020808252825182820181905260009190848201906040850190845b818110156113385783518352928401929184019160010161131c565b50909695505050505050565b60008060006060848603121561135957600080fd5b505081359360208301359350604090920135919050565b6020808252825182820181905260009190848201906040850190845b818110156113385783516001600160a01b03168352928401929184019160010161138c565b600080604083850312156113c457600080fd5b50508035926020909101359150565b602080825282518282018190526000919060409081850190868401855b8281101561143057815180516001600160a01b0316855286810151600790810b8887015290860151900b85850152606090930192908501906001016113f0565b5091979650505050505050565b60008083601f84011261144f57600080fd5b50813567ffffffffffffffff81111561146757600080fd5b6020830191508360208260051b850101111561148257600080fd5b9250929050565b600080600080600080600060a0888a0312156114a457600080fd5b87359650602088013567ffffffffffffffff808211156114c357600080fd5b6114cf8b838c0161143d565b909850965060408a01359150808211156114e857600080fd5b506114f58a828b0161143d565b909550935050606088013591506080880135611510816112bb565b8091505092959891949750929550565b634e487b7160e01b600052601160045260246000fd5b6000821982111561154957611549611520565b500190565b60006020828403121561156057600080fd5b5051919050565b60006001820161157957611579611520565b5060010190565b60006020828403121561159257600080fd5b81516104ba816112bb565b634e487b7160e01b600052603260045260246000fd5b60005b838110156115ce5781810151838201526020016115b6565b838111156115dd576000848401525b50505050565b828152600082516115fb8160208501602087016115b3565b919091016020019392505050565b60008261162657634e487b7160e01b600052601260045260246000fd5b500690565b7f416363657373436f6e74726f6c3a206163636f756e74200000000000000000008152600083516116638160178501602088016115b3565b7001034b99036b4b9b9b4b733903937b6329607d1b60179184019182015283516116948160288401602088016115b3565b01602801949350505050565b60208152600082518060208401526116bf8160408501602087016115b3565b601f01601f19169190910160400192915050565b60008160001904831182151516156116ed576116ed611520565b500290565b634e487b7160e01b600052604160045260246000fd5b60008161171757611717611520565b50600019019056fea26469706673582212207f84921fab607338857f351c3510756ee1a8bc8a10515ec76ca3590bacd43d6e64736f6c634300080e0033",
  "devdoc": {
    "kind": "dev",
    "methods": {
      "getRoleAdmin(bytes32)": {
        "details": "Returns the admin role that controls `role`. See {grantRole} and {revokeRole}. To change a role's admin, use {_setRoleAdmin}."
      },
      "grantRole(bytes32,address)": {
        "details": "Grants `role` to `account`. If `account` had not been already granted `role`, emits a {RoleGranted} event. Requirements: - the caller must have ``role``'s admin role."
      },
      "hasRole(bytes32,address)": {
        "details": "Returns `true` if `account` has been granted `role`."
      },
      "renounceRole(bytes32,address)": {
        "details": "Revokes `role` from the calling account. Roles are often managed via {grantRole} and {revokeRole}: this function's purpose is to provide a mechanism for accounts to lose their privileges if they are compromised (such as when a trusted device is misplaced). If the calling account had been revoked `role`, emits a {RoleRevoked} event. Requirements: - the caller must be `account`."
      },
      "revokeRole(bytes32,address)": {
        "details": "Revokes `role` from `account`. If `account` had been granted `role`, emits a {RoleRevoked} event. Requirements: - the caller must have ``role``'s admin role."
      },
      "supportsInterface(bytes4)": {
        "details": "See {IERC165-supportsInterface}."
      }
    },
    "version": 1
  },
  "userdoc": {
    "kind": "user",
    "methods": {},
    "version": 1
  },
  "storageLayout": {
    "storage": [
      {
        "astId": 24,
        "contract": "contracts/DelphsTable.sol:DelphsTable",
        "label": "_roles",
        "offset": 0,
        "slot": "0",
        "type": "t_mapping(t_bytes32,t_struct(RoleData)19_storage)"
      },
      {
        "astId": 691,
        "contract": "contracts/DelphsTable.sol:DelphsTable",
        "label": "latestRoll",
        "offset": 0,
        "slot": "1",
        "type": "t_uint256"
      },
      {
        "astId": 695,
        "contract": "contracts/DelphsTable.sol:DelphsTable",
        "label": "rolls",
        "offset": 0,
        "slot": "2",
        "type": "t_mapping(t_uint256,t_bytes32)"
      },
      {
        "astId": 699,
        "contract": "contracts/DelphsTable.sol:DelphsTable",
        "label": "blockOfRoll",
        "offset": 0,
        "slot": "3",
        "type": "t_mapping(t_uint256,t_uint256)"
      },
      {
        "astId": 707,
        "contract": "contracts/DelphsTable.sol:DelphsTable",
        "label": "destinations",
        "offset": 0,
        "slot": "4",
        "type": "t_mapping(t_bytes32,t_mapping(t_uint256,t_array(t_struct(Destination)719_storage)dyn_storage))"
      },
      {
        "astId": 712,
        "contract": "contracts/DelphsTable.sol:DelphsTable",
        "label": "tables",
        "offset": 0,
        "slot": "5",
        "type": "t_mapping(t_bytes32,t_struct(Table)734_storage)"
      }
    ],
    "types": {
      "t_address": {
        "encoding": "inplace",
        "label": "address",
        "numberOfBytes": "20"
      },
      "t_array(t_address)dyn_storage": {
        "base": "t_address",
        "encoding": "dynamic_array",
        "label": "address[]",
        "numberOfBytes": "32"
      },
      "t_array(t_bytes32)dyn_storage": {
        "base": "t_bytes32",
        "encoding": "dynamic_array",
        "label": "bytes32[]",
        "numberOfBytes": "32"
      },
      "t_array(t_struct(Destination)719_storage)dyn_storage": {
        "base": "t_struct(Destination)719_storage",
        "encoding": "dynamic_array",
        "label": "struct DelphsTable.Destination[]",
        "numberOfBytes": "32"
      },
      "t_bool": {
        "encoding": "inplace",
        "label": "bool",
        "numberOfBytes": "1"
      },
      "t_bytes32": {
        "encoding": "inplace",
        "label": "bytes32",
        "numberOfBytes": "32"
      },
      "t_int64": {
        "encoding": "inplace",
        "label": "int64",
        "numberOfBytes": "8"
      },
      "t_mapping(t_address,t_bool)": {
        "encoding": "mapping",
        "key": "t_address",
        "label": "mapping(address => bool)",
        "numberOfBytes": "32",
        "value": "t_bool"
      },
      "t_mapping(t_bytes32,t_mapping(t_uint256,t_array(t_struct(Destination)719_storage)dyn_storage))": {
        "encoding": "mapping",
        "key": "t_bytes32",
        "label": "mapping(bytes32 => mapping(uint256 => struct DelphsTable.Destination[]))",
        "numberOfBytes": "32",
        "value": "t_mapping(t_uint256,t_array(t_struct(Destination)719_storage)dyn_storage)"
      },
      "t_mapping(t_bytes32,t_struct(RoleData)19_storage)": {
        "encoding": "mapping",
        "key": "t_bytes32",
        "label": "mapping(bytes32 => struct AccessControl.RoleData)",
        "numberOfBytes": "32",
        "value": "t_struct(RoleData)19_storage"
      },
      "t_mapping(t_bytes32,t_struct(Table)734_storage)": {
        "encoding": "mapping",
        "key": "t_bytes32",
        "label": "mapping(bytes32 => struct DelphsTable.Table)",
        "numberOfBytes": "32",
        "value": "t_struct(Table)734_storage"
      },
      "t_mapping(t_uint256,t_array(t_struct(Destination)719_storage)dyn_storage)": {
        "encoding": "mapping",
        "key": "t_uint256",
        "label": "mapping(uint256 => struct DelphsTable.Destination[])",
        "numberOfBytes": "32",
        "value": "t_array(t_struct(Destination)719_storage)dyn_storage"
      },
      "t_mapping(t_uint256,t_bytes32)": {
        "encoding": "mapping",
        "key": "t_uint256",
        "label": "mapping(uint256 => bytes32)",
        "numberOfBytes": "32",
        "value": "t_bytes32"
      },
      "t_mapping(t_uint256,t_uint256)": {
        "encoding": "mapping",
        "key": "t_uint256",
        "label": "mapping(uint256 => uint256)",
        "numberOfBytes": "32",
        "value": "t_uint256"
      },
      "t_struct(Destination)719_storage": {
        "encoding": "inplace",
        "label": "struct DelphsTable.Destination",
        "members": [
          {
            "astId": 714,
            "contract": "contracts/DelphsTable.sol:DelphsTable",
            "label": "player",
            "offset": 0,
            "slot": "0",
            "type": "t_address"
          },
          {
            "astId": 716,
            "contract": "contracts/DelphsTable.sol:DelphsTable",
            "label": "x",
            "offset": 20,
            "slot": "0",
            "type": "t_int64"
          },
          {
            "astId": 718,
            "contract": "contracts/DelphsTable.sol:DelphsTable",
            "label": "y",
            "offset": 0,
            "slot": "1",
            "type": "t_int64"
          }
        ],
        "numberOfBytes": "64"
      },
      "t_struct(RoleData)19_storage": {
        "encoding": "inplace",
        "label": "struct AccessControl.RoleData",
        "members": [
          {
            "astId": 16,
            "contract": "contracts/DelphsTable.sol:DelphsTable",
            "label": "members",
            "offset": 0,
            "slot": "0",
            "type": "t_mapping(t_address,t_bool)"
          },
          {
            "astId": 18,
            "contract": "contracts/DelphsTable.sol:DelphsTable",
            "label": "adminRole",
            "offset": 0,
            "slot": "1",
            "type": "t_bytes32"
          }
        ],
        "numberOfBytes": "64"
      },
      "t_struct(Table)734_storage": {
        "encoding": "inplace",
        "label": "struct DelphsTable.Table",
        "members": [
          {
            "astId": 721,
            "contract": "contracts/DelphsTable.sol:DelphsTable",
            "label": "id",
            "offset": 0,
            "slot": "0",
            "type": "t_bytes32"
          },
          {
            "astId": 724,
            "contract": "contracts/DelphsTable.sol:DelphsTable",
            "label": "players",
            "offset": 0,
            "slot": "1",
            "type": "t_array(t_address)dyn_storage"
          },
          {
            "astId": 727,
            "contract": "contracts/DelphsTable.sol:DelphsTable",
            "label": "seeds",
            "offset": 0,
            "slot": "2",
            "type": "t_array(t_bytes32)dyn_storage"
          },
          {
            "astId": 729,
            "contract": "contracts/DelphsTable.sol:DelphsTable",
            "label": "owner",
            "offset": 0,
            "slot": "3",
            "type": "t_address"
          },
          {
            "astId": 731,
            "contract": "contracts/DelphsTable.sol:DelphsTable",
            "label": "startedAt",
            "offset": 0,
            "slot": "4",
            "type": "t_uint256"
          },
          {
            "astId": 733,
            "contract": "contracts/DelphsTable.sol:DelphsTable",
            "label": "gameLength",
            "offset": 0,
            "slot": "5",
            "type": "t_uint256"
          }
        ],
        "numberOfBytes": "192"
      },
      "t_uint256": {
        "encoding": "inplace",
        "label": "uint256",
        "numberOfBytes": "32"
      }
    }
  }
}