{
  "address": "0xe79f7ecC20d59cC67AEc7ac173F5156A8f27c77f",
  "abi": [
    {
      "inputs": [
        {
          "internalType": "address",
          "name": "initialOwner",
          "type": "address"
        }
      ],
      "stateMutability": "nonpayable",
      "type": "constructor"
    },
    {
      "inputs": [],
      "name": "Unauthorized",
      "type": "error"
    },
    {
      "anonymous": false,
      "inputs": [
        {
          "indexed": true,
          "internalType": "bytes32",
          "name": "role",
          "type": "bytes32"
        },
        {
          "indexed": true,
          "internalType": "bytes32",
          "name": "previousAdminRole",
          "type": "bytes32"
        },
        {
          "indexed": true,
          "internalType": "bytes32",
          "name": "newAdminRole",
          "type": "bytes32"
        }
      ],
      "name": "RoleAdminChanged",
      "type": "event"
    },
    {
      "anonymous": false,
      "inputs": [
        {
          "indexed": true,
          "internalType": "bytes32",
          "name": "role",
          "type": "bytes32"
        },
        {
          "indexed": true,
          "internalType": "address",
          "name": "account",
          "type": "address"
        },
        {
          "indexed": true,
          "internalType": "address",
          "name": "sender",
          "type": "address"
        }
      ],
      "name": "RoleGranted",
      "type": "event"
    },
    {
      "anonymous": false,
      "inputs": [
        {
          "indexed": true,
          "internalType": "bytes32",
          "name": "role",
          "type": "bytes32"
        },
        {
          "indexed": true,
          "internalType": "address",
          "name": "account",
          "type": "address"
        },
        {
          "indexed": true,
          "internalType": "address",
          "name": "sender",
          "type": "address"
        }
      ],
      "name": "RoleRevoked",
      "type": "event"
    },
    {
      "anonymous": false,
      "inputs": [
        {
          "indexed": true,
          "internalType": "bytes32",
          "name": "tableId",
          "type": "bytes32"
        }
      ],
      "name": "TableAdded",
      "type": "event"
    },
    {
      "anonymous": false,
      "inputs": [
        {
          "indexed": true,
          "internalType": "bytes32",
          "name": "tableId",
          "type": "bytes32"
        }
      ],
      "name": "TableRemoved",
      "type": "event"
    },
    {
      "inputs": [],
      "name": "ADMIN_ROLE",
      "outputs": [
        {
          "internalType": "bytes32",
          "name": "",
          "type": "bytes32"
        }
      ],
      "stateMutability": "view",
      "type": "function"
    },
    {
      "inputs": [],
      "name": "DEFAULT_ADMIN_ROLE",
      "outputs": [
        {
          "internalType": "bytes32",
          "name": "",
          "type": "bytes32"
        }
      ],
      "stateMutability": "view",
      "type": "function"
    },
    {
      "inputs": [
        {
          "internalType": "bytes32",
          "name": "tableId",
          "type": "bytes32"
        }
      ],
      "name": "add",
      "outputs": [
        {
          "internalType": "bool",
          "name": "",
          "type": "bool"
        }
      ],
      "stateMutability": "nonpayable",
      "type": "function"
    },
    {
      "inputs": [],
      "name": "all",
      "outputs": [
        {
          "internalType": "bytes32[]",
          "name": "ids",
          "type": "bytes32[]"
        }
      ],
      "stateMutability": "view",
      "type": "function"
    },
    {
      "inputs": [
        {
          "internalType": "bytes32",
          "name": "role",
          "type": "bytes32"
        }
      ],
      "name": "getRoleAdmin",
      "outputs": [
        {
          "internalType": "bytes32",
          "name": "",
          "type": "bytes32"
        }
      ],
      "stateMutability": "view",
      "type": "function"
    },
    {
      "inputs": [
        {
          "internalType": "bytes32",
          "name": "role",
          "type": "bytes32"
        },
        {
          "internalType": "address",
          "name": "account",
          "type": "address"
        }
      ],
      "name": "grantRole",
      "outputs": [],
      "stateMutability": "nonpayable",
      "type": "function"
    },
    {
      "inputs": [
        {
          "internalType": "bytes32",
          "name": "role",
          "type": "bytes32"
        },
        {
          "internalType": "address",
          "name": "account",
          "type": "address"
        }
      ],
      "name": "hasRole",
      "outputs": [
        {
          "internalType": "bool",
          "name": "",
          "type": "bool"
        }
      ],
      "stateMutability": "view",
      "type": "function"
    },
    {
      "inputs": [
        {
          "internalType": "bytes32",
          "name": "tableId",
          "type": "bytes32"
        }
      ],
      "name": "remove",
      "outputs": [
        {
          "internalType": "bool",
          "name": "",
          "type": "bool"
        }
      ],
      "stateMutability": "nonpayable",
      "type": "function"
    },
    {
      "inputs": [
        {
          "internalType": "bytes32",
          "name": "role",
          "type": "bytes32"
        },
        {
          "internalType": "address",
          "name": "account",
          "type": "address"
        }
      ],
      "name": "renounceRole",
      "outputs": [],
      "stateMutability": "nonpayable",
      "type": "function"
    },
    {
      "inputs": [
        {
          "internalType": "bytes32",
          "name": "role",
          "type": "bytes32"
        },
        {
          "internalType": "address",
          "name": "account",
          "type": "address"
        }
      ],
      "name": "revokeRole",
      "outputs": [],
      "stateMutability": "nonpayable",
      "type": "function"
    },
    {
      "inputs": [
        {
          "internalType": "bytes4",
          "name": "interfaceId",
          "type": "bytes4"
        }
      ],
      "name": "supportsInterface",
      "outputs": [
        {
          "internalType": "bool",
          "name": "",
          "type": "bool"
        }
      ],
      "stateMutability": "view",
      "type": "function"
    }
  ],
  "transactionHash": "0x6ee3fc6341bd8b214817de2aa835ffcb028eecef9d722f9500eeff32ed520c89",
  "args": [
    "0x905173B6C0A51925d3C9B619466c623c754Fb7BB"
  ],
  "numDeployments": 1,
  "solcInputHash": "8f66d240580ad3a031e102a231e0e5d0",
  "bytecode": "0x608060405234801561001057600080fd5b50604051610cb1380380610cb183398101604081905261002f91610116565b6100597fa49807205ce4d355092ef5a8a18f56e8913cf4a201fbe287825b095693c217758261006a565b61006460008261006a565b50610146565b6100748282610078565b5050565b6000828152602081815260408083206001600160a01b038516845290915290205460ff16610074576000828152602081815260408083206001600160a01b03851684529091529020805460ff191660011790556100d23390565b6001600160a01b0316816001600160a01b0316837f2f8788117e7eff1d82e926ec794901d17c78024a50270940304540a733656f0d60405160405180910390a45050565b60006020828403121561012857600080fd5b81516001600160a01b038116811461013f57600080fd5b9392505050565b610b5c806101556000396000f3fe608060405234801561001057600080fd5b50600436106100a95760003560e01c8063446bffba11610071578063446bffba1461014457806375b238fc1461015757806391d148541461017e57806395bc267314610191578063a217fddf146101a4578063d547741f146101ac57600080fd5b806301ffc9a7146100ae57806310c4e8b0146100d6578063248a9ca3146100eb5780632f2ff15d1461011c57806336568abe14610131575b600080fd5b6100c16100bc3660046108ce565b6101bf565b60405190151581526020015b60405180910390f35b6100de6101f6565b6040516100cd91906108f8565b61010e6100f936600461093c565b60009081526020819052604090206001015490565b6040519081526020016100cd565b61012f61012a366004610955565b610207565b005b61012f61013f366004610955565b610231565b6100c161015236600461093c565b6102b4565b61010e7fa49807205ce4d355092ef5a8a18f56e8913cf4a201fbe287825b095693c2177581565b6100c161018c366004610955565b61033b565b6100c161019f36600461093c565b610364565b61010e600081565b61012f6101ba366004610955565b6103eb565b60006001600160e01b03198216637965db0b60e01b14806101f057506301ffc9a760e01b6001600160e01b03198316145b92915050565b60606102026001610410565b905090565b6000828152602081905260409020600101546102228161041b565b61022c8383610428565b505050565b6001600160a01b03811633146102a65760405162461bcd60e51b815260206004820152602f60248201527f416363657373436f6e74726f6c3a2063616e206f6e6c792072656e6f756e636560448201526e103937b632b9903337b91039b2b63360891b60648201526084015b60405180910390fd5b6102b082826104ac565b5050565b60006102e07fa49807205ce4d355092ef5a8a18f56e8913cf4a201fbe287825b095693c217753361033b565b6102fc576040516282b42960e81b815260040160405180910390fd5b610307600183610511565b5060405182907f8ac28a0a21d4e65d5acf5335e13d61f3b00a51dc21e7ed5096d70c6548d7846690600090a2506001919050565b6000918252602082815260408084206001600160a01b0393909316845291905290205460ff1690565b60006103907fa49807205ce4d355092ef5a8a18f56e8913cf4a201fbe287825b095693c217753361033b565b6103ac576040516282b42960e81b815260040160405180910390fd5b6103b7600183610524565b5060405182907faa258e20b8a3cd2fcb4bf55d005709fffd878da1f59a0aa3c54f4829b1c788eb90600090a2506001919050565b6000828152602081905260409020600101546104068161041b565b61022c83836104ac565b60606101f082610530565b610425813361058c565b50565b610432828261033b565b6102b0576000828152602081815260408083206001600160a01b03851684529091529020805460ff191660011790556104683390565b6001600160a01b0316816001600160a01b0316837f2f8788117e7eff1d82e926ec794901d17c78024a50270940304540a733656f0d60405160405180910390a45050565b6104b6828261033b565b156102b0576000828152602081815260408083206001600160a01b0385168085529252808320805460ff1916905551339285917ff6391f5c32d9c69d2a47ea670b442974b53935d1edc7fd64eb21e047a839171b9190a45050565b600061051d83836105f0565b9392505050565b600061051d838361063f565b60608160000180548060200260200160405190810160405280929190818152602001828054801561058057602002820191906000526020600020905b81548152602001906001019080831161056c575b50505050509050919050565b610596828261033b565b6102b0576105ae816001600160a01b03166014610732565b6105b9836020610732565b6040516020016105ca9291906109c1565b60408051601f198184030181529082905262461bcd60e51b825261029d91600401610a36565b6000818152600183016020526040812054610637575081546001818101845560008481526020808220909301849055845484825282860190935260409020919091556101f0565b5060006101f0565b60008181526001830160205260408120548015610728576000610663600183610a7f565b855490915060009061067790600190610a7f565b90508181146106dc57600086600001828154811061069757610697610a96565b90600052602060002001549050808760000184815481106106ba576106ba610a96565b6000918252602080832090910192909255918252600188019052604090208390555b85548690806106ed576106ed610aac565b6001900381819060005260206000200160009055905585600101600086815260200190815260200160002060009055600193505050506101f0565b60009150506101f0565b60606000610741836002610ac2565b61074c906002610ae1565b67ffffffffffffffff81111561076457610764610af9565b6040519080825280601f01601f19166020018201604052801561078e576020820181803683370190505b509050600360fc1b816000815181106107a9576107a9610a96565b60200101906001600160f81b031916908160001a905350600f60fb1b816001815181106107d8576107d8610a96565b60200101906001600160f81b031916908160001a90535060006107fc846002610ac2565b610807906001610ae1565b90505b600181111561087f576f181899199a1a9b1b9c1cb0b131b232b360811b85600f166010811061083b5761083b610a96565b1a60f81b82828151811061085157610851610a96565b60200101906001600160f81b031916908160001a90535060049490941c9361087881610b0f565b905061080a565b50831561051d5760405162461bcd60e51b815260206004820181905260248201527f537472696e67733a20686578206c656e67746820696e73756666696369656e74604482015260640161029d565b6000602082840312156108e057600080fd5b81356001600160e01b03198116811461051d57600080fd5b6020808252825182820181905260009190848201906040850190845b8181101561093057835183529284019291840191600101610914565b50909695505050505050565b60006020828403121561094e57600080fd5b5035919050565b6000806040838503121561096857600080fd5b8235915060208301356001600160a01b038116811461098657600080fd5b809150509250929050565b60005b838110156109ac578181015183820152602001610994565b838111156109bb576000848401525b50505050565b7f416363657373436f6e74726f6c3a206163636f756e74200000000000000000008152600083516109f9816017850160208801610991565b7001034b99036b4b9b9b4b733903937b6329607d1b6017918401918201528351610a2a816028840160208801610991565b01602801949350505050565b6020815260008251806020840152610a55816040850160208701610991565b601f01601f19169190910160400192915050565b634e487b7160e01b600052601160045260246000fd5b600082821015610a9157610a91610a69565b500390565b634e487b7160e01b600052603260045260246000fd5b634e487b7160e01b600052603160045260246000fd5b6000816000190483118215151615610adc57610adc610a69565b500290565b60008219821115610af457610af4610a69565b500190565b634e487b7160e01b600052604160045260246000fd5b600081610b1e57610b1e610a69565b50600019019056fea2646970667358221220a677ca8fc46ce7a7a1dcff51b9c373721ca2edba93abe36ed452a0e973359ee964736f6c634300080e0033",
  "devdoc": {
    "kind": "dev",
    "methods": {
      "getRoleAdmin(bytes32)": {
        "details": "Returns the admin role that controls `role`. See {grantRole} and {revokeRole}. To change a role's admin, use {_setRoleAdmin}."
      },
      "grantRole(bytes32,address)": {
        "details": "Grants `role` to `account`. If `account` had not been already granted `role`, emits a {RoleGranted} event. Requirements: - the caller must have ``role``'s admin role."
      },
      "hasRole(bytes32,address)": {
        "details": "Returns `true` if `account` has been granted `role`."
      },
      "renounceRole(bytes32,address)": {
        "details": "Revokes `role` from the calling account. Roles are often managed via {grantRole} and {revokeRole}: this function's purpose is to provide a mechanism for accounts to lose their privileges if they are compromised (such as when a trusted device is misplaced). If the calling account had been revoked `role`, emits a {RoleRevoked} event. Requirements: - the caller must be `account`."
      },
      "revokeRole(bytes32,address)": {
        "details": "Revokes `role` from `account`. If `account` had been granted `role`, emits a {RoleRevoked} event. Requirements: - the caller must have ``role``'s admin role."
      },
      "supportsInterface(bytes4)": {
        "details": "See {IERC165-supportsInterface}."
      }
    },
    "version": 1
  },
  "userdoc": {
    "kind": "user",
    "methods": {},
    "version": 1
  },
  "storageLayout": {
    "storage": [
      {
        "astId": 24,
        "contract": "contracts/OrchestratorState.sol:OrchestratorState",
        "label": "_roles",
        "offset": 0,
        "slot": "0",
        "type": "t_mapping(t_bytes32,t_struct(RoleData)19_storage)"
      },
      {
        "astId": 2062,
        "contract": "contracts/OrchestratorState.sol:OrchestratorState",
        "label": "_activeTables",
        "offset": 0,
        "slot": "1",
        "type": "t_struct(Bytes32Set)858_storage"
      }
    ],
    "types": {
      "t_address": {
        "encoding": "inplace",
        "label": "address",
        "numberOfBytes": "20"
      },
      "t_array(t_bytes32)dyn_storage": {
        "base": "t_bytes32",
        "encoding": "dynamic_array",
        "label": "bytes32[]",
        "numberOfBytes": "32"
      },
      "t_bool": {
        "encoding": "inplace",
        "label": "bool",
        "numberOfBytes": "1"
      },
      "t_bytes32": {
        "encoding": "inplace",
        "label": "bytes32",
        "numberOfBytes": "32"
      },
      "t_mapping(t_address,t_bool)": {
        "encoding": "mapping",
        "key": "t_address",
        "label": "mapping(address => bool)",
        "numberOfBytes": "32",
        "value": "t_bool"
      },
      "t_mapping(t_bytes32,t_struct(RoleData)19_storage)": {
        "encoding": "mapping",
        "key": "t_bytes32",
        "label": "mapping(bytes32 => struct AccessControl.RoleData)",
        "numberOfBytes": "32",
        "value": "t_struct(RoleData)19_storage"
      },
      "t_mapping(t_bytes32,t_uint256)": {
        "encoding": "mapping",
        "key": "t_bytes32",
        "label": "mapping(bytes32 => uint256)",
        "numberOfBytes": "32",
        "value": "t_uint256"
      },
      "t_struct(Bytes32Set)858_storage": {
        "encoding": "inplace",
        "label": "struct EnumerableSet.Bytes32Set",
        "members": [
          {
            "astId": 857,
            "contract": "contracts/OrchestratorState.sol:OrchestratorState",
            "label": "_inner",
            "offset": 0,
            "slot": "0",
            "type": "t_struct(Set)664_storage"
          }
        ],
        "numberOfBytes": "64"
      },
      "t_struct(RoleData)19_storage": {
        "encoding": "inplace",
        "label": "struct AccessControl.RoleData",
        "members": [
          {
            "astId": 16,
            "contract": "contracts/OrchestratorState.sol:OrchestratorState",
            "label": "members",
            "offset": 0,
            "slot": "0",
            "type": "t_mapping(t_address,t_bool)"
          },
          {
            "astId": 18,
            "contract": "contracts/OrchestratorState.sol:OrchestratorState",
            "label": "adminRole",
            "offset": 0,
            "slot": "1",
            "type": "t_bytes32"
          }
        ],
        "numberOfBytes": "64"
      },
      "t_struct(Set)664_storage": {
        "encoding": "inplace",
        "label": "struct EnumerableSet.Set",
        "members": [
          {
            "astId": 659,
            "contract": "contracts/OrchestratorState.sol:OrchestratorState",
            "label": "_values",
            "offset": 0,
            "slot": "0",
            "type": "t_array(t_bytes32)dyn_storage"
          },
          {
            "astId": 663,
            "contract": "contracts/OrchestratorState.sol:OrchestratorState",
            "label": "_indexes",
            "offset": 0,
            "slot": "1",
            "type": "t_mapping(t_bytes32,t_uint256)"
          }
        ],
        "numberOfBytes": "64"
      },
      "t_uint256": {
        "encoding": "inplace",
        "label": "uint256",
        "numberOfBytes": "32"
      }
    }
  }
}