{
  "address": "0x987b58d118adf1AD1885141439EBB06844270dC8",
  "abi": [
    {
      "inputs": [],
      "name": "UsernameAlreadyClaimed",
      "type": "error"
    },
    {
      "inputs": [
        {
          "internalType": "address payable",
          "name": "addr",
          "type": "address"
        }
      ],
      "name": "addDevice",
      "outputs": [
        {
          "internalType": "bool",
          "name": "",
          "type": "bool"
        }
      ],
      "stateMutability": "payable",
      "type": "function"
    },
    {
      "inputs": [
        {
          "internalType": "address",
          "name": "",
          "type": "address"
        }
      ],
      "name": "deviceToPlayer",
      "outputs": [
        {
          "internalType": "address",
          "name": "",
          "type": "address"
        }
      ],
      "stateMutability": "view",
      "type": "function"
    },
    {
      "inputs": [
        {
          "internalType": "address",
          "name": "",
          "type": "address"
        },
        {
          "internalType": "address",
          "name": "",
          "type": "address"
        }
      ],
      "name": "devices",
      "outputs": [
        {
          "internalType": "bool",
          "name": "",
          "type": "bool"
        }
      ],
      "stateMutability": "view",
      "type": "function"
    },
    {
      "inputs": [
        {
          "internalType": "string",
          "name": "_name",
          "type": "string"
        },
        {
          "internalType": "address payable",
          "name": "device",
          "type": "address"
        }
      ],
      "name": "initializePlayer",
      "outputs": [
        {
          "internalType": "bool",
          "name": "",
          "type": "bool"
        }
      ],
      "stateMutability": "payable",
      "type": "function"
    },
    {
      "inputs": [
        {
          "internalType": "address",
          "name": "player",
          "type": "address"
        }
      ],
      "name": "isInitialized",
      "outputs": [
        {
          "internalType": "bool",
          "name": "",
          "type": "bool"
        }
      ],
      "stateMutability": "view",
      "type": "function"
    },
    {
      "inputs": [
        {
          "internalType": "address",
          "name": "",
          "type": "address"
        }
      ],
      "name": "name",
      "outputs": [
        {
          "internalType": "string",
          "name": "",
          "type": "string"
        }
      ],
      "stateMutability": "view",
      "type": "function"
    },
    {
      "inputs": [
        {
          "internalType": "address",
          "name": "addr",
          "type": "address"
        }
      ],
      "name": "removeDevice",
      "outputs": [
        {
          "internalType": "bool",
          "name": "",
          "type": "bool"
        }
      ],
      "stateMutability": "nonpayable",
      "type": "function"
    },
    {
      "inputs": [
        {
          "internalType": "string",
          "name": "_name",
          "type": "string"
        }
      ],
      "name": "setUsername",
      "outputs": [
        {
          "internalType": "bool",
          "name": "",
          "type": "bool"
        }
      ],
      "stateMutability": "nonpayable",
      "type": "function"
    },
    {
      "inputs": [
        {
          "internalType": "string",
          "name": "",
          "type": "string"
        }
      ],
      "name": "usernameToAddress",
      "outputs": [
        {
          "internalType": "address",
          "name": "",
          "type": "address"
        }
      ],
      "stateMutability": "view",
      "type": "function"
    }
  ],
  "transactionHash": "0x31789fbca9949ef4b0c41fb87e81b48cce5f5dc9357a9de7fdad55fbc7a2556b",
  "args": [],
  "numDeployments": 2,
  "solcInputHash": "e74064c30a81560d82c3fbf64645019a",
  "bytecode": "0x608060405234801561001057600080fd5b5061092e806100206000396000f3fe6080604052600436106100865760003560e01c80634bf7494b116100595780634bf7494b146101b6578063b111cb84146101c9578063d60b347f146101dc578063ed59313a14610218578063f825f1431461023857600080fd5b8063019848921461008b5780631a1bd7e4146100c15780631f7b63241461010957806336ec7a7714610168575b600080fd5b34801561009757600080fd5b506100ab6100a63660046105b8565b610279565b6040516100b891906105dc565b60405180910390f35b3480156100cd57600080fd5b506100f96100dc366004610631565b600060208181529281526040808220909352908152205460ff1681565b60405190151581526020016100b8565b34801561011557600080fd5b506100f96101243660046105b8565b336000908152602081815260408083206001600160a01b03949094168352928152828220805460ff19169055600390522080546001600160a01b0319169055600190565b34801561017457600080fd5b5061019e6101833660046105b8565b6003602052600090815260409020546001600160a01b031681565b6040516001600160a01b0390911681526020016100b8565b6100f96101c43660046106b3565b610313565b6100f96101d73660046105b8565b610353565b3480156101e857600080fd5b506100f96101f73660046105b8565b6001600160a01b039081166000818152600360205260409020549091161490565b34801561022457600080fd5b506100f961023336600461070a565b6103cf565b34801561024457600080fd5b5061019e610253366004610762565b80516020818301810180516002825292820191909301209152546001600160a01b031681565b6001602052600090815260409020805461029290610813565b80601f01602080910402602001604051908101604052809291908181526020018280546102be90610813565b801561030b5780601f106102e05761010080835404028352916020019161030b565b820191906000526020600020905b8154815290600101906020018083116102ee57829003601f168201915b505050505081565b33600081815260036020526040812080546001600160a01b03191690921790915561033e84846103cf565b5061034882610353565b506001949350505050565b336000818152602081815260408083206001600160a01b038616808552908352818420805460ff19166001179055600390925280832080546001600160a01b03191690941790935591519091903480156108fc029184818181858888f193505050501580156103c6573d6000803e3d6000fd5b50600192915050565b336000908152600360205260408082205490516001600160a01b03909116908290600290610400908790879061084d565b908152604051908190036020019020546001600160a01b039081169150821681148061043357506001600160a01b038116155b61045057604051634804ba5b60e01b815260040160405180910390fd5b6001600160a01b0382166000908152600160205260409081902090516002916104789161085d565b908152604080516020928190038301902080546001600160a01b03191690556001600160a01b0384166000908152600190925290206104b8908686610507565b5081600286866040516104cc92919061084d565b90815260405190819003602001902080546001600160a01b03929092166001600160a01b031990921691909117905550600191505092915050565b82805461051390610813565b90600052602060002090601f016020900481019282610535576000855561057b565b82601f1061054e5782800160ff1982351617855561057b565b8280016001018555821561057b579182015b8281111561057b578235825591602001919060010190610560565b5061058792915061058b565b5090565b5b80821115610587576000815560010161058c565b6001600160a01b03811681146105b557600080fd5b50565b6000602082840312156105ca57600080fd5b81356105d5816105a0565b9392505050565b600060208083528351808285015260005b81811015610609578581018301518582016040015282016105ed565b8181111561061b576000604083870101525b50601f01601f1916929092016040019392505050565b6000806040838503121561064457600080fd5b823561064f816105a0565b9150602083013561065f816105a0565b809150509250929050565b60008083601f84011261067c57600080fd5b50813567ffffffffffffffff81111561069457600080fd5b6020830191508360208285010111156106ac57600080fd5b9250929050565b6000806000604084860312156106c857600080fd5b833567ffffffffffffffff8111156106df57600080fd5b6106eb8682870161066a565b90945092505060208401356106ff816105a0565b809150509250925092565b6000806020838503121561071d57600080fd5b823567ffffffffffffffff81111561073457600080fd5b6107408582860161066a565b90969095509350505050565b634e487b7160e01b600052604160045260246000fd5b60006020828403121561077457600080fd5b813567ffffffffffffffff8082111561078c57600080fd5b818401915084601f8301126107a057600080fd5b8135818111156107b2576107b261074c565b604051601f8201601f19908116603f011681019083821181831017156107da576107da61074c565b816040528281528760208487010111156107f357600080fd5b826020860160208301376000928101602001929092525095945050505050565b600181811c9082168061082757607f821691505b60208210810361084757634e487b7160e01b600052602260045260246000fd5b50919050565b8183823760009101908152919050565b600080835481600182811c91508083168061087957607f831692505b6020808410820361089857634e487b7160e01b86526022600452602486fd5b8180156108ac57600181146108bd576108ea565b60ff198616895284890196506108ea565b60008a81526020902060005b868110156108e25781548b8201529085019083016108c9565b505084890196505b50949897505050505050505056fea2646970667358221220737f31390ff7bb44fbdfb88eaa26e754eb7900cef80ddea1aa081952ade9817064736f6c634300080e0033",
  "devdoc": {
    "kind": "dev",
    "methods": {},
    "version": 1
  },
  "userdoc": {
    "kind": "user",
    "methods": {},
    "version": 1
  },
  "storageLayout": {
    "storage": [
      {
        "astId": 1188,
        "contract": "contracts/Player.sol:Player",
        "label": "devices",
        "offset": 0,
        "slot": "0",
        "type": "t_mapping(t_address,t_mapping(t_address,t_bool))"
      },
      {
        "astId": 1192,
        "contract": "contracts/Player.sol:Player",
        "label": "name",
        "offset": 0,
        "slot": "1",
        "type": "t_mapping(t_address,t_string_storage)"
      },
      {
        "astId": 1196,
        "contract": "contracts/Player.sol:Player",
        "label": "usernameToAddress",
        "offset": 0,
        "slot": "2",
        "type": "t_mapping(t_string_memory_ptr,t_address)"
      },
      {
        "astId": 1200,
        "contract": "contracts/Player.sol:Player",
        "label": "deviceToPlayer",
        "offset": 0,
        "slot": "3",
        "type": "t_mapping(t_address,t_address)"
      }
    ],
    "types": {
      "t_address": {
        "encoding": "inplace",
        "label": "address",
        "numberOfBytes": "20"
      },
      "t_bool": {
        "encoding": "inplace",
        "label": "bool",
        "numberOfBytes": "1"
      },
      "t_mapping(t_address,t_address)": {
        "encoding": "mapping",
        "key": "t_address",
        "label": "mapping(address => address)",
        "numberOfBytes": "32",
        "value": "t_address"
      },
      "t_mapping(t_address,t_bool)": {
        "encoding": "mapping",
        "key": "t_address",
        "label": "mapping(address => bool)",
        "numberOfBytes": "32",
        "value": "t_bool"
      },
      "t_mapping(t_address,t_mapping(t_address,t_bool))": {
        "encoding": "mapping",
        "key": "t_address",
        "label": "mapping(address => mapping(address => bool))",
        "numberOfBytes": "32",
        "value": "t_mapping(t_address,t_bool)"
      },
      "t_mapping(t_address,t_string_storage)": {
        "encoding": "mapping",
        "key": "t_address",
        "label": "mapping(address => string)",
        "numberOfBytes": "32",
        "value": "t_string_storage"
      },
      "t_mapping(t_string_memory_ptr,t_address)": {
        "encoding": "mapping",
        "key": "t_string_memory_ptr",
        "label": "mapping(string => address)",
        "numberOfBytes": "32",
        "value": "t_address"
      },
      "t_string_memory_ptr": {
        "encoding": "bytes",
        "label": "string",
        "numberOfBytes": "32"
      },
      "t_string_storage": {
        "encoding": "bytes",
        "label": "string",
        "numberOfBytes": "32"
      }
    }
  }
}